:100000000C943E000C945B000C945B000C945B0021
:100010000C945B000C945B000C945D000C945B00F2
:100020000C9484000C945B000C94AE000C945B0068
:100030000C945B000C945B000C945B000C945B00D4
:100040000C945B000C945B000C945B000C945B00C4
:100050000C94B6020C945B000C945B000C945B0057
:100060000C94EB030C945B000C945B000C945B0011
:100070000C945B000C945B000C945B0011241FBE7D
:10008000CFEFCDBFDFE3DEBF18E3A0E0B8E3E2EBE4
:10009000F9E102C005900D92AE32B107D9F728E31D
:1000A000AEE2B8E301C01D92A136B207E1F70E94AB
:1000B000BD000C94D00C0C9400001F920F920FB650
:1000C0000F9211242F933F934F935F936F937F93DE
:1000D0008F939F93AF93BF93EF93FF930E949502EB
:1000E00082E080934301FF91EF91BF91AF919F9187
:1000F0008F917F916F915F914F913F912F910F90D1
:100100000FBE0F901F9018951F920F920FB60F926F
:1001100011248F939F9380912E38811103C02A9AC6
:10012000299A4B9A90912F38891708F02A98909124
:100130003038891708F0299890913138891708F0DC
:100140004B988F5F80932E3881E080930B0A9F91AC
:100150008F910F900FBE0F901F9018951F920F92C6
:100160000FB60F9211248F9380E180930B0A8F9129
:100170000F900FBE0F901F9018950E942F030E94A2
:10018000390278942A9A2FE78AE196E0215080403C
:100190009040E1F700C00000299A2FE78AE196E03D
:1001A000215080409040E1F700C000004B9A2FE7BB
:1001B0008AE196E0215080409040E1F700C00000C5
:1001C0002A982FE78AE196E0215080409040E1F79D
:1001D00000C0000029982FE78AE196E02150804076
:1001E0009040E1F700C000004B982FE78AE196E0CD
:1001F000215080409040E1F700C000000E9422049E
:10020000EFE2F8E38EE080838183828300E0312C8B
:10021000912C10E0E12C512C712C44244394612C3E
:10022000EF010F2EFEE08F2EF02D0F2EF8EBFF2E9C
:10023000F02D0F2EF4EC2F2EF02D0F2EF4ECCF2EF0
:10024000D12CF02D0F2EF2E3AF2EB12CF02D0E9409
:100250006102809133388130D9F480E090E00E94CF
:10026000A70288230CF4C2C01123A1F021E0E216FA
:1002700041F0E21608F4CCC082E0E81609F4CBC0E5
:1002800004C06894EE24E1F807C09924939410E028
:100290001111ACC0992031F0888289828A82E110E4
:1002A000CEC005C0E11047C07110B7C005C000E066
:1002B000512C44244394612C0E945D0CB5010E9492
:1002C000E90B892BA9F50E945D0C63E070E00E94A8
:1002D000E90B382EA2C04420B1F0E32DF0E081E01C
:1002E000860DA62DB0E0AC55B6469C91E15DF74C6D
:1002F000908344244394863009F4412C682E04E60C
:100300007724739493C0E32DF0E06A94A62DB0E0B7
:10031000AC55B6468C91E15DF74C8083611083C08B
:10032000888289828A8204E6712C442443947EC0A8
:10033000712C05507BC091E0E9121EC001111AC05A
:1003400005C0512C712C44244394612C0E945D0CF7
:10035000B6010E94E90B88830E945D0CB6010E94E1
:10036000E90B89830E945D0CB6010E94E90B8A8328
:1003700004E660C001505EC022E0E2123CC0011100
:1003800031C081E0581689F0581630F05216B9F095
:1003900093E05916F9F032C0288289828A8210E0EF
:1003A00004E6912C552453942CC0888229828A8299
:1003B00010E004E6912C6894552451F822C08882FC
:1003C00089822A8210E004E6912C0F2EF3E05F2E42
:1003D000F02D17C0888229828A8210E004E6912CD1
:1003E000512C0FC0015010E0912C0BC0F882F98203
:1003F000FA8211E006C010E0912C03C010E004E680
:10040000912C87E893E10197F1F700C000001FCF1E
:10041000EE24E39441CFE12C3FCF002309F45BCFDE
:100420007724739486CF04E67724739410E0E12C4C
:10043000912CE7CF10E0EE24E394912CE2CF91E0F1
:10044000E91609F47ECF512C712C44244394612C7D
:1004500000E092CF81E0809334380895E0E4F1E049
:10046000918192FDFDCF90E080934A0190934B01E2
:10047000089580E20E942E02E4E1F4E08081877F0B
:1004800080838081887F8460808389E198E30E94F3
:10049000A70A89E498E30E94ED0A60E070E089E130
:1004A00098E30E945D0B60E070E089E198E30E94B0
:1004B0007C0B44E458E360E084E098E30E94A404E9
:1004C000089580913538813051F46AE272E089E113
:1004D00098E30E94F70A811102C01092353880918A
:1004E0003438813009F5109234380E94290981117D
:1004F0000AC084E098E30E94C304882339F082E0B4
:100500008093323803C081E080933238E091043820
:10051000F09105388081882324F481E08093353878
:10052000089581E0809333380895809143388F5F38
:10053000843118F48093433808951092433881E051
:100540008093353884E190E00E94990408959C01DD
:10055000220F331F820F931F880F991FE0910838D5
:10056000F0910938E80FF91F808108951F920F92CA
:100570000FB60F9211242F933F934F935F936F9376
:100580007F938F939F93AF93BF93EF93FF930E94BB
:10059000BD0BFF91EF91BF91AF919F918F917F9193
:1005A0006F915F914F913F912F910F900FBE0F90E0
:1005B0001F90189580E0089540E068ED81E690E096
:1005C0000E940F0480E00895789480E00895E0E1AF
:1005D000F4E0808188608193E83184E0F807C9F70E
:1005E000E0E3F4E0808188608193E83384E0F807F9
:1005F000C9F7E0E5F4E0808188608193E83584E024
:10060000F807C9F70895029A0A98E2E1F4E08081B8
:10061000877F808380818F7780838081887F8083BC
:10062000A0E0B2E011968C911197806111968C93A5
:100630001197019A0998E1E1F4E08081877F808336
:1006400080818F7780838081887F808311968C91D1
:100650001197806111968C930E944C0308950E941B
:10066000E7020398E3E1F4E08081877F8083219AA9
:100670002998229A2A98439A4B980E94DC020E9459
:1006800013040E9422040E94E4020E9420040E949B
:1006900003030E94DA020895E0E1F8E08AE4848727
:1006A00083EE818710925338109254381092553847
:1006B000109256381092573810925838109251387C
:1006C0001092523810925B3810925C381092593860
:1006D00010925A380895E0E1F8E08385806C8387B2
:1006E00082E082870895E0915538F091563830972E
:1006F00009F009950895E0915338F09154383097F6
:1007000009F009950895E0915738F09158383097DD
:1007100009F009950895E0915138F09152383097D9
:1007200009F009950895E0915B38F0915C383097B5
:1007300009F009950895E0915938F0915A383097A9
:1007400009F00995089580911B0883FF03C00E945A
:100750009303089580911B0882FF03C00E949B03AE
:10076000089580911B0886FF0AC080911B0880FFB6
:1007700006C00E94830381E080932C380895809105
:100780001B088823D4F480911B0881FF13C080913B
:100790001B0884FF04C080912C38882341F01092FC
:1007A0002C380E94730383E080931A0808950E94F6
:1007B0006B0308950E947B03089580911B0886FFB8
:1007C00009C080911B0880FD05C00E948B0382E058
:1007D00080931A0808951F920F920FB60F9211245A
:1007E0002F933F934F935F936F937F938F939F9339
:1007F000AF93BF93EF93FF930E94A303FF91EF91F9
:10080000BF91AF919F918F917F916F915F914F9128
:100810003F912F910F900FBE0F901F901895FC01E4
:1008200064BF40830895E0E4F1E081818111FDCF50
:10083000E0E4F1E081E8808382E0828380E0089553
:1008400080E00895E0E0FAE080E1818381E1828741
:100850008FEF90E086A397A381E0808380E00895E6
:10086000CF92DF92FF920F931F93CF93DF93EC0110
:10087000AE81BF81EB01CC0FDD1FC60FD71FCA0FA2
:10088000DB1FFA80FC0144815581E6E0E69F900180
:10089000E79F300D11248A01020F131FF8012281F6
:1008A0003381F90121813281F80104811581201BF6
:1008B000310BE8812E1B3109EC01EA81FB810081BB
:1008C0001181FA0140E050E04017510739F1461715
:1008D0005707F9F012968C911297F8121AC080817E
:1008E00085588230E8F0C480D58082819381EC0104
:1008F00089819A81C816D90660F48C199D09CC911A
:10090000D0E0C817D90728F48C1B9D0B281739078E
:1009100038F04F5F5F4F13963696D6CF80E001C018
:1009200081E0DF91CF911F910F91FF90DF90CF90E9
:1009300008952091363830913738820F931F809375
:1009400036389093373808950097D9F041155105FE
:10095000C1F026E0629FB0011124DC011496ED91F4
:10096000FC911597E60FF71F21E0208314968D91D7
:100970009C911597FC01E60FF71F4283538380E09B
:1009800008958BE008952F923F924F925F926F925D
:100990007F928F929F92AF92BF92CF92DF92EF920F
:1009A000FF920F931F93CF93DF93009709F47DC3BA
:1009B000EC01A12CB12C812C912C212CD12C33E0D9
:1009C000C32E45E8642E56E8752E67E0362E72E099
:1009D000472EE8E05E2EEA81FB81808191818816B6
:1009E000990608F0A5C17501EE0CFF1C0C811D8154
:1009F0000E0D1F1DD8018C91843009F4A2C038F46B
:100A0000823001F108F049C0813059F08AC185383F
:100A100009F4C2C0863809F4F6C0873009F081C1F4
:100A200037C1D8011296ED91FC91139780818E7198
:100A300009F069C14C928C819D81FC01EE0DFF1D76
:100A4000518261C1F8012181222329F10280F381C1
:100A5000E02D253020F081819281D8010EC0D8018F
:100A600014968D919C911597418152818417950719
:100A700069F04817590730F4019714968D939C93A9
:100A8000159704C00196F801848395832150D801FD
:100A900011962C9338C1F80131C1D80114962D91CB
:100AA0003C91159712968D919C911397DC011196AC
:100AB0004D915C9112972417350709F432C18E814C
:100AC0009F8142175307E0F4241B350BDC01AA0D6C
:100AD000BB1D8C9190E0058002C0959587950A9486
:100AE000E2F799272817390708F41BC18481882366
:100AF00009F417C1F8013082EA81FB8124811AC010
:100B0000FC01EA0DFB1D421B530B808190E048174E
:100B1000590708F406C18281882331F0B401CE015F
:100B20000E9430048111FDC0E4E0D801EC93EA8119
:100B3000FB8122818C819D81FC01EE0DFF1D2183B3
:100B4000E2C0D80114962D913C9115971296ED9123
:100B5000FC911397818192818217930708F4D7C083
:100B6000EE81FF81EA0DFB1D821B930B208130E09B
:100B70002817390708F0AFC08281882331F0B4010B
:100B8000CE010E9430048111CCC0F80181818823FC
:100B900009F467C08150B6C0A881B98180851396D9
:100BA0008C93EC81FD81EE0DFF1D44815581A28166
:100BB000B38111968D919C91129784179507C0F07F
:100BC000AE81BF81AA0DBB1D6C91262F30E011961E
:100BD0007C917F5F02C0359527957A95E2F7841B5B
:100BE000950B621B262F30E02817390708F497C0B1
:100BF0007082EA81FB8122818C819D81FC01EE0D56
:100C0000FF1D218342C0D80114966D917C911597E8
:100C10001296ED91FC9113972181328126173707A7
:100C200058F411968C911197811102C0CC9277C023
:100C30008150F801818373C0EE81FF81EA0DFB1DB5
:100C40008081482F50E091819F5F02C05595479564
:100C50009A95E2F7261B370B841B90E082179307C7
:100C600060F4D8016C92EA81FB8123818C819D81A3
:100C7000FC01EE0DFF1D218352C0F801818181111D
:100C800002C0C0824CC081508183222423943BC087
:100C9000D80114962D913C91159712968D919C91A7
:100CA0001397DC0111968D919C91129782179307EF
:100CB00068F5281B390BAE81BF81AA0DBB1D8C9135
:100CC00090E0058002C0959587950A94E2F79927F0
:100CD0002817390718F4F801C0821AC0D8011196F4
:100CE0008C91119781110CC081E08C938C819D8136
:100CF000FC01EE0DFF1D0280F381E02DC08211C0CA
:100D00008150F8018183DD24D3940BC0D801CC92AB
:100D10008C819D81FC01EE0DFF1D118202C02224F9
:100D20002394BFEF8B1A9B0AE3E0AE0EB11C53CEA7
:100D3000E881F981808187FF23C040E050E020E016
:100D400030E0EA81FB81808191812817390798F48E
:100D5000EC81FD81E40FF51FA281B3818C9180FDB0
:100D600005C09081977F11F081608C932F5F3F4F7A
:100D70004A5F5F4FE6CFE881F98180818F7780837A
:100D8000D11007C0E881F98121106FC080818E7F6A
:100D90006EC0EA81FB8181858823A1F3E881F98116
:100DA000808180688083EA81FB818185813051F771
:100DB00040E050E020E030E096E0D92EEA81FB816F
:100DC0006081718126173707E8F60C811D81FA01D1
:100DD000EE0FFF1FE00FF11F8081982F977FA1F189
:100DE000853811F08330B1F5EE80FF80D701A40F74
:100DF000B51F1296BC90BB2039F180E090E0C12C69
:100E000086179707F8F428173907D1F0D89ED00134
:100E1000D99EB00D1124A00FB11FAC91A43011F0D8
:100E2000A63871F4DC01AA0FBB1FA80FB91FAE0DC5
:100E3000BF1D1296AC91BA1203C0CB01CC24C3944F
:100E40000196DECFC11006C00280F381E02D8081C3
:100E50008E7F05C00280F381E02D808181608083D8
:100E60002F5F3F4F4D5F5F4FA9CF808181608083AF
:100E70008091363890913738E881F981218132812B
:100E8000A90148535F4F4817590738F4821B930B49
:100E9000AA24A394A3E0BA2E44C08217930710F0AB
:100EA00080E004C1821B930B0197893C9105C0F33C
:100EB000EFCF885C9109E881F98121813281285343
:100EC0003F4F218332832381211196C02481222325
:100ED00011F021502483E881F9812581222311F02A
:100EE000215025838A809B80D40116962C911697D9
:100EF00021111BC08A809B80F4012781211148C0E9
:100F0000EA81FB812381222361F020E030E0A0E030
:100F1000B0E0EA81FB8140815181A417B50708F454
:100F20006EC0893C910528F6BBCF08811981F80174
:100F300024812111DFCFED90FC9060E070E040E073
:100F400050E04E155F05F1F0EC81FD81E60FF71FD3
:100F50002081233011F0283081F424813581C28032
:100F6000D380D6011196CD90DC9012972C153D05BB
:100F700020F42F5F3F4F248335834F5F5F4F6A5FBD
:100F80007F4FDFCFF4012681D80114962C93B2CF86
:100F900008811981D80115962C912111B1CFE080DB
:100FA000F18060E070E040E050E04E155F05F1F048
:100FB000EC81FD81E60FF71F2081233011F02830EE
:100FC00081F424813581C280D380D6011196CD90E1
:100FD000DC901297C216D30620F4215031092483E5
:100FE00035834F5F5F4F6A5F7F4FDFCFF40127810B
:100FF000D80115962C9384CF2150238381CFA9014A
:10100000440F551FEC81FD81E40FF51F60816538A9
:1010100009F047C06181662319F06150618341C0C6
:10102000A0826C817D81FB01E40FF51F0280F381BA
:10103000E02DB082EE81FF81E20FF31FD280DD2030
:1010400081F140E050E000E010E0EA81FB81608146
:1010500071810617170728F5EE81FF81E40FF51F50
:101060006281D61219C0BA01660F771FEC81FD812B
:101070004F01860E971EF401E280F380F701F080A5
:10108000F0FE0AC0F401A082EC81FD81E60FF71F9B
:101090000280F381E02DB0820F5F1F4F4D5F5F4FE5
:1010A000D4CF11962D5F3F4F34CF8BE0DF91CF919E
:1010B0001F910F91FF90EF90DF90CF90BF90AF9076
:1010C0009F908F907F906F905F904F903F902F9068
:1010D000089580913B3890913C38A0915D38B09153
:1010E0005E38ED91FC9111974081518125E0289F58
:1010F000B001299F700D112420E030E0841795077E
:10110000A8F41496ED91FC911597E20FF31FE60FEA
:10111000F71FE0812B5F3F4FE0FD02C00196EECF4D
:1011200080933B3890933C3880E0089510923B3890
:1011300010923C3881E00895BC01E0915D38F09157
:101140005E389C0183E0220F331F8A95E1F7A2816C
:10115000B381A20FB31F12969C91129713968C9194
:1011600090932A0680932B06A281B381A20FB31F0E
:101170009C9111968C91909326068093270695E07A
:10118000969FA001979F500D1124A481B581A40FB3
:10119000B51F13968C9180931A06A481B581A40F74
:1011A000B51F14968C9180931B06A481B581A40F62
:1011B000B51F8C9181FD9C9384819581DC01A40FE6
:1011C000B51F8C918C7169F4A281B381A20FB31FFA
:1011D0001696AC91A295AF70B0E0A455B6468C912E
:1011E00001C08FE380931C06A281B381A20FB31FBD
:1011F00014968C918B3110F48C5F01C08FE1809339
:101200000506A281B381A20FB31F17968C9180931C
:101210000106A281B381A20FB31F15968C9182950E
:101220008F708093190682819381FC01E20FF31F76
:1012300085818F708061809302068091180683609B
:101240008093180681E88093000681E08093080669
:1012500008953F924F925F926F927F928F929F92EA
:10126000AF92BF92CF92DF92EF92FF920F931F93B4
:10127000CF93DF9380913A38882309F448C1A09135
:101280005D38B0915E38C0905F38D090603800E033
:1012900010E060E070E0E12CF12C80E03324339426
:1012A000D1E84D2E88248A94992493946D907C9053
:1012B0001197F30120813181E216F30608F023C172
:1012C000E601299139916E011496ED91FC911597E3
:1012D000E60FF71F40814C7150E0569547955695A3
:1012E00047954115510521F041305105B9F002C132
:1012F0001296CD91DC911397C00FD11F4E814F7084
:101300009F81491710F4941B01C090E002C03695EC
:1013100027959A95E2F721833283EDC012964D917D
:101320005C911397400F511FEA010F8002C0369560
:1013300027950A94E2F721833283A380B480211594
:10134000D2E03D0720F02F5F314091E005C0A401BD
:10135000421B530B9A0190E0E3015A80D0E45D12E6
:1013600005C036952795992319F009C0992339F0BE
:101370004FEFA416B40631F440828EE007C0772404
:10138000739401C0712C2A30310590F41496ED91BC
:10139000FC911597E60FF71F908197FF3082149606
:1013A000ED91FC911597E60FF71FA382B482A3C0BD
:1013B000E501CD2FDD27C295CF709C2FA5014427D5
:1013C0005F70652EA501407F5527529542954F705D
:1013D00045275F7045275A2D5F70A52EC43030F029
:1013E0009370D695C795D695C7959C0F71103CC044
:1013F00050E8550D523010F456E007C053E005C0D8
:10140000951768F49F5F2F5C3109203D3105C0F7C7
:1014100006C0CFE06C1649F063942551310926319E
:101420003105B8F7DFE06D120EC0951720F49F5F0D
:10143000D5E06D2E08C0CFE06C2E05C04F3049F0CE
:101440004F5F2250310923303105C0F74F3009F08A
:1014500065C04FE0641681F1639445E05FC0992355
:1014600061F091502F5C3109203D3105C0F705C076
:10147000662041F06A942551310926313105C0F7C3
:1014800061100DC0992321F091505AE0652E07C0DC
:10149000612C05C0442341F04150225031092330D2
:1014A0003105C0F7411110C06620E9F16A944AE0A5
:1014B00023303105C8F608C059132FC02330310539
:1014C00040F14FE0A42E4FE0943018F0990F990F9F
:1014D0009950C0E14C9FA001112456294A29C92FD7
:1014E000D0E0DC2FCC27D295D07F4C2B5D2B4383D3
:1014F000548301C0FFCFDFEFED1AFD0A6B5F7F4F12
:10150000085F1F4FD3CE92E090933A380EC083E02D
:101510000CC04FE02FE0A22ED7CF4FE02330310593
:1015200008F073CFD1CF40E0CFCFDF91CF911F91A3
:101530000F91FF90EF90DF90CF90BF90AF909F9072
:101540008F907F906F905F904F903F900895CF93D2
:10155000DF930097E1F1DC01ED91FC91A081B18175
:1015600060E070E040E050E020E030E04A175B07C8
:1015700099F0EC01EA81FB81E60FF71FC081D18170
:101580000280F381E02DEC2BFD2B2E2B3F2B4F5FA8
:101590005F4F685F7F4FEACF21153105D1F0809111
:1015A0003A38811108C0209322063093230681E047
:1015B00080933A380AC080912206822B80932206BB
:1015C00080912306832B8093230680E003C08BE069
:1015D00001C082E0DF91CF910895009731F08093B0
:1015E0005F389093603880E008958BE0089561152E
:1015F000710591F1009781F120913A38222371F120
:10160000243071F180935D3890935E386093383860
:101610007093393820EC20931806DC01ED91FC9191
:101620002281203421F420911806206205C0203840
:1016300041F42091180628622093180610921E0685
:1016400013C0213879F420911806286220931806D7
:1016500026E820931E0608C08BE0089583E00895D5
:1016600081E0089582E0089510920006DC01ED917A
:10167000FC918481803108F080E18093030681E051
:1016800080930B0680930A0680932D3810923B3886
:1016900010923C380E94690881110BC084E080934D
:1016A0003A3880913B3890913C380E949C0880E009
:1016B000089582E080933A3808950097C9F0DC01DC
:1016C000ED91FC911197208131812617370790F019
:1016D00045E0469F9001479F300D11241496ED91EF
:1016E000FC911597E20FF31F81E0808380E008955D
:1016F0008BE0089582E00895FC01892BD1F1A0814F
:10170000B1818D919C91119786179707A0F1129640
:101710009C910480F581E02D903459F485E0869FFA
:10172000D001879FB00D1124AE0FBF1F84E392E05C
:101730000DC09058923080F485E0869FD001879F3D
:10174000B00D1124AE0FBF1F87E695E013968D9361
:101750009C93149780E001C082E095E0969F9001F1
:10176000979F300D1124E20FF31F908192609083B8
:1017700008958BE0089582E008951092000640914C
:1017800010065091110680913B3890913C389C0195
:10179000220F331FE0915F38F0916038E20FF31FA2
:1017A00040835183019680933B3890933C380E944C
:1017B0006908811109C084E080933A3880913B38F0
:1017C00090913C380C949C08E0913838F09139386D
:1017D000099497FB072E16F4009407D077FD09D0E3
:1017E0000E94FD0B07FC05D03EF4909581959F4F1C
:1017F0000895709561957F4F0895AA1BBB1B51E119
:1018000007C0AA1FBB1FA617B70710F0A61BB70B70
:10181000881F991F5A95A9F780959095BC01CD0115
:1018200008958F929F92AF92BF92CF92DF92EF92E4
:10183000FF92CF93DF93EC01688179818A819B814C
:10184000611571058105910521F464E279ED8BE55F
:1018500097E02DE133EF41E050E00E946D0C49012B
:101860005A019B01AC01A7EAB1E40E948C0C6B0108
:101870007C01ACEEB4EFA50194010E949A0CDC014E
:10188000CB018C0D9D1DAE1DBF1DB7FF03C0019781
:10189000A109B04888839983AA83BB839F77DF918E
:1018A000CF91FF90EF90DF90CF90BF90AF909F903F
:1018B0008F9008950E94110C089580E098E30E9493
:1018C000110C0895A0E0B0E08093003890930138A7
:1018D000A0930238B09303380895052E97FB1EF4A9
:1018E00000940E94840C57FD07D00E949F0C07FCB7
:1018F00003D04EF40C94840C50954095309521956E
:101900003F4F4F4F5F4F089590958095709561952B
:101910007F4F8F4F9F4F08950E94C10CA59F900D40
:10192000B49F900DA49F800D911D11240895B7FFC1
:101930000C948C0C0E948C0C821B930B0895A1E2DA
:101940001A2EAA1BBB1BFD010DC0AA1FBB1FEE1F39
:10195000FF1FA217B307E407F50720F0A21BB30B84
:10196000E40BF50B661F771F881F991F1A9469F700
:1019700060957095809590959B01AC01BD01CF015C
:101980000895A29FB001B39FC001A39F700D811D58
:101990001124911DB29F700D811D1124911D089578
:0419A000F894FFCFE9
:0E19A4001E2B3B4E6689C4FF3F1C0B05030142
:1019B200010000003D380F384B380C38140100018B
:1019C20000040005001405140127381F38443800AC
:0E19D20000010000020004010080300001014D
:00000001FF
